:020000041A00E0
:1000000000800010CD03001A7901001A7B01001A4C
:100010007D01001A7F01001A8101001AC274FF538A
:10002000000000000000000000000000111F001A86
:100030008501001A00000000B11F001A1520001AE7
:10004000E521001ABB01001ABB01001A00000000E4
:10005000BB01001ABB01001ABB01001ABB01001A48
:10006000C12F001ABB01001ABB01001ABB01001A04
:10007000BB01001ABB01001ABB01001ABB01001A28
:10008000BB01001ABB01001ABB01001ABB01001A18
:10009000BB01001ABB01001ABB01001ABB01001A08
:1000A000BB01001ABB01001ABB01001ABB01001AF8
:1000B000BB01001ABB01001ABB01001ABB01001AE8
:1000C000BB01001ABB01001ABB01001ABB01001AD8
:1000D000BB01001ABB01001ABB01001ABB01001AC8
:1000E000BB01001ABB01001ABB01001ABB01001AB8
:1000F00000000000BB01001ABB01001ABB01001A7E
:1001000000000000BB01001ABB01001ABB01001A6D
:10011000BB01001AB84E001A00000010A000000039
:10012000B84E001A0000081000000000B84E001A77
:100130000000002000000000B84E001A00800020DF
:1001400000000000B84E001A00C0002000000000AF
:10015000A0000010682B0000000008100000000044
:1001600000000020000000000080002000000000CF
:1001700000C0002000000000FEE7FEE7FEE7FEE70B
:10018000FEE7FEE7FEE7FEE7FEE7002393420AD222
:1001900010B450F8044B41F8044B04339342F8D3A5
:1001A0005DF8044B7047704700238B4204D2002255
:1001B00040F8042B0433F8E77047FEE7FFFFFFFF2A
:1001C000FFFFFFFFFFFFFFFFFFFFFFFFFFFFFFFF3F
:1001D000FFFFFFFFFFFFFFFFFFFFFFFFFFFFFFFF2F
:1001E000FFFFFFFFFFFFFFFFFFFFFFFFFFFFFFFF1F
:1001F000FFFFFFFFFFFFFFFFFFFFFFFFFFFFFFFF0F
:10020000FFFFFFFFFFFFFFFFFFFFFFFFFFFFFFFFFE
:10021000FFFFFFFFFFFFFFFFFFFFFFFFFFFFFFFFEE
:10022000FFFFFFFFFFFFFFFFFFFFFFFFFFFFFFFFDE
:10023000FFFFFFFFFFFFFFFFFFFFFFFFFFFFFFFFCE
:10024000FFFFFFFFFFFFFFFFFFFFFFFFFFFFFFFFBE
:10025000FFFFFFFFFFFFFFFFFFFFFFFFFFFFFFFFAE
:10026000FFFFFFFFFFFFFFFFFFFFFFFFFFFFFFFF9E
:10027000FFFFFFFFFFFFFFFFFFFFFFFFFFFFFFFF8E
:10028000FFFFFFFFFFFFFFFFFFFFFFFFFFFFFFFF7E
:10029000FFFFFFFFFFFFFFFFFFFFFFFFFFFFFFFF6E
:1002A000FFFFFFFFFFFFFFFFFFFFFFFFFFFFFFFF5E
:1002B000FFFFFFFFFFFFFFFFFFFFFFFFFFFFFFFF4E
:1002C000FFFFFFFFFFFFFFFFFFFFFFFFFFFFFFFF3E
:1002D000FFFFFFFFFFFFFFFFFFFFFFFFFFFFFFFF2E
:1002E000FFFFFFFFFFFFFFFFFFFFFFFFFFFFFFFF1E
:1002F000FFFFFFFFFFFFFFFFFFFFFFFFFFFFFFFF0E
:1003000000B583B0002002F09BF80446012002F003
:1003100097F80546022002F093F80646032002F003
:100320008FF8009033462A462146054803F076FFB1
:10033000642001F0B9F90121002000F0E1FFE1E7BC
:10034000644B001A08B5052002F056F8052002F0AB
:100350003DF80146074803F061FF0121002000F04D
:10036000CFFF642001F0A0F90021084600F0C8FF8B
:1003700008BD00BF8C4B001A00B583B002F048F8EE
:100380000C4803F0D3FF002401940223009323467A
:10039000C8220949094800F07EFF01940123009317
:1003A0002346C8220649074800F075FF01F01CF8F3
:1003B000FEE700BFA44B001ABC4B001A0103001A51
:1003C000C44B001A4503001A7047FFFF10B572B600
:1003D000194B1A4A1A600433194A1A60002305E0BF
:1003E000184A4FF0FF3142F823100133072BF7D999
:1003F00062B6154B07E003F10C049A685968186857
:10040000FFF7C3FE2346114A9342F4D306E01C468D
:10041000596854F8080BFFF7C7FE23460C4A93426D
:10042000F5D302F0B1FD03F085F9FFF7CDFFFFF73B
:10043000A3FF30BFFDE700BF003105400010DF1013
:10044000FFF7DF0180E200E01401001A5001001AFA
:100450007801001A70477047092303604FF0FF309E
:100460007047582303604FF0FF307047022904D9CA
:10047000092303604FF0FF30704701207047582375
:1004800003604FF0FF3070472DE9F0410646022926
:100490001CD817461D460024AC4211D201F0EBFFD8
:1004A000B0F1FF3FF8D004F1010838550D2803D012
:1004B0000A2801D04446EFE701F0DDFF404603E0A3
:1004C000132333604FF0FF30BDE8F0811323036046
:1004D0004FF0FF30F8E702290CD870B516461D46DC
:1004E0000024AC4204D2305D01F0C0FF0134F8E7D3
:1004F000284670BD132303604FF0FF307047FFFFA5
:10050000054B1B6823B1044B186801441960704700
:10051000014B024A1A60F6E7A0000010082C0010F8
:10052000124A12F0070F1ED0D11D21F00701C1F5AC
:10053000005313440A460E480260002141601344F0
:10054000083B23F007030B48036059601960991AB0
:1005500051601360084B1960084B1960084B4FF04D
:1005600000421A6070474FF40053E4E7A8000010FF
:10057000B4200010A4000010B0200010AC20001027
:10058000A820001010B4134B1A461B688342FBD3FB
:100590005168541884420AD041684418A3420BD0D1
:1005A0000360904200D010605DF8044B70474068D3
:1005B000014451601046EFE7074C2468A34206D07F
:1005C0005B681944416013681B680360E9E70460D5
:1005D000E7E700BFB4200010A400001070B5044687
:1005E00000F04CFF394B1B689BB1394B1B681C4218
:1005F00012D134B1083414F0070F02D024F00704EC
:100600000834D4B1334B1B68A3421AD3324B1D6854
:100610001DE0FFF785FFE8E700F0CAFF002600F0C5
:1006200059FC16F0070F4FD04FF0A00383F3118849
:10063000BFF36F8FBFF34F8FFEE700F0B9FF0026C7
:10064000EDE700F0B5FF0026E9E72B4615466A689E
:10065000A24202D22A68002AF7D11C4A1268AA4292
:1006600014D01E6808362A681A606B681B1B102B92
:1006700014D9281910F0070F0CD04FF0A00383F302
:100680001188BFF36F8FBFF34F8FFEE700F090FF2D
:100690000026C4E743606C60FFF774FF6A680D4989
:1006A0000B689B1A0B600D4909688B4201D20B49FC
:1006B0000B60074B1B6813436B6000232B6000F03B
:1006C00077FF002EADD1AAE7304670BDA400001020
:1006D000A8200010AC200010B4200010B0200010A2
:1006E00080B338B50446A0F1080550F8043C164A1A
:1006F0001268134208D14FF0A00383F31188BFF3AF
:100700006F8FBFF34F8FFEE750F8081C41B14FF0D9
:10071000A00383F31188BFF36F8FBFF34F8FFEE702
:1007200023EA020340F8043C00F0A8FE54F8041C3D
:10073000064A13680B4413602846FFF723FF00F0B6
:1007400037FF38BD704700BFA8200010AC20001054
:1007500010B5044601F0EEFBA26BE36B9A4204D0A5
:10076000002401F009FC204610BD0124F9E710B572
:10077000044601F0DFFBA36B23B9012401F0FCFB6D
:10078000204610BD0024F9E770B504461546866B77
:10079000026C5AB903681BB100200136A66370BD14
:1007A000406801F0E9F800236360F6E76DB98068FE
:1007B00002F0E4FF226CA3681344A36062689342D2
:1007C00019D32368A3602846E7E7C06802F0D6FF84
:1007D000226C5142E3689B1AE3602268934202D282
:1007E00063680B44E360022D01D00020D5E726B1F9
:1007F000013E0020D1E72846CFE70020CDE70346A1
:10080000026C6AB110B50846D9681144D9605C68B9
:10081000A14201D31968D960D96802F0AFFF10BDB9
:10082000704738B5054601F085FB95F8454064B240
:1008300003E001F08BF8013C64B2002C08DD6B6A28
:1008400033B105F1240000F0EDFF0028F3D0F0E70C
:10085000FF2385F8453001F08FFB01F06BFB95F825
:10086000444064B203E001F071F8013C64B2002C32
:1008700008DD2B6933B105F1100000F0D3FF00282B
:10088000F3D0F0E7FF2385F8443001F075FB38BD65
:1008900038B5E0B10D46044601F04CFB2168E26B2F
:1008A000236C03FB021060600020A063A160013A8A
:1008B00002FB0313E360FF2384F8443084F84530DF
:1008C000EDB9236963B901F057FB012038BD4FF042
:1008D000A00383F31188BFF36F8FBFF34F8FFEE741
:1008E00004F1100000F09EFF0028ECD0084B4FF000
:1008F00080521A60BFF34F8FBFF36F8FE3E704F1AD
:10090000100000F074FA04F1240000F070FADAE745
:1009100004ED00E038B51D46049C0B4649B924603F
:10092000E063236401212046FFF7B2FF84F84C50B6
:1009300038BD2260F4E740B94FF0A00383F311887B
:10094000BFF36F8FBFF34F8FFEE730B585B01C4606
:10095000054653B192B189B94FF0A00383F31188D2
:10096000BFF36F8FBFF34F8FFEE74FF0A00383F30A
:100970001188BFF36F8FBFF34F8FFEE76AB150232B
:100980000393039B502B13D04FF0A00383F31188E4
:10099000BFF36F8FBFF34F8FFEE70029EFD04FF00B
:1009A000A00383F31188BFF36F8FBFF34F8FFEE770
:1009B000012384F8463000949DF820302846FFF744
:1009C000A9FF204605B030BDF0B585B0019288B1D1
:1009D0000E461D460446B1B1022D20D1E36B012B1A
:1009E0001DD04FF0A00383F31188BFF36F8FBFF3C7
:1009F0004F8FFEE74FF0A00383F31188BFF36F8F93
:100A0000BFF34F8FFEE7036C002BE5D04FF0A00340
:100A100083F31188BFF36F8FBFF34F8FFEE700F0B2
:100A20009BFF074658B9019B002B44D04FF0A00311
:100A300083F31188BFF36F8FBFF34F8FFEE700275B
:100A400039E02A4631462046FFF79EFE626A6AB9BF
:100A500038B13C4B4FF080521A60BFF34F8FBFF359
:100A60006F8F01F089FA012005B0F0BD04F1240078
:100A700000F0D8FE0028F4D0324B4FF080521A60BC
:100A8000BFF34F8FBFF36F8FEBE701F075FA0020D4
:100A9000EAE702A800F00CFF012719E0002384F820
:100AA000443021E0002384F8453023E02046FFF75E
:100AB000B8FE00F07DFD01F03DFAA26BE36B9A42B7
:100AC000BFD3022DBDD0019B002BDED0002FE0D084
:100AD00001F052FA00F0D2FC01F02CFA94F8443004
:100AE0005BB2B3F1FF3FD9D094F845305BB2B3F1BC
:100AF000FF3FD7D001F040FA01A902A800F0E4FEC0
:100B0000C8B92046FFF724FE0028CFD0019904F190
:100B1000100000F053FE2046FFF783FE00F048FD72
:100B20000028C8D1074B4FF080521A60BFF34F8F97
:100B3000BFF36F8FBFE72046FFF773FE00F038FD6D
:100B4000002091E704ED00E02DE9F84390B18946DB
:100B500090461F460446B1B1022F20D1E36B012B12
:100B60001DD04FF0A00383F31188BFF36F8FBFF345
:100B70004F8FFEE74FF0A00383F31188BFF36F8F11
:100B8000BFF34F8FFEE7036C002BE5D04FF0A003BF
:100B900083F31188BFF36F8FBFF34F8FFEE701F030
:100BA000F3FAEFF311864FF0A00383F31188BFF33C
:100BB0006F8FBFF34F8FA26BE36B9A4206D3022F66
:100BC00004D0002086F31188BDE8F88394F84550DE
:100BD0006DB23A4649462046FFF7D6FDB5F1FF3FD4
:100BE00005D06B1C5BB284F845300120EAE7636AEC
:100BF0000BB90120E6E704F1240000F013FE30B148
:100C0000B8F1000F05D00120C8F80000DAE7012094
:100C1000D8E70120D6E7FFFFF0B585B0019290B18B
:100C20000E460446C1B100F097FE074600BB019B8B
:100C3000002B5CD04FF0A00383F31188BFF36F8FBC
:100C4000BFF34F8FFEE74FF0A00383F31188BFF38C
:100C50006F8FBFF34F8FFEE7036C002BE3D04FF095
:100C6000A00383F31188BFF36F8FBFF34F8FFEE7AD
:100C700000273CE031462046FFF7C1FD013DA5635A
:100C8000236923B901F078F9012005B0F0BD04F122
:100C9000100000F0C7FD0028F4D0354B4FF0805213
:100CA0001A60BFF34F8FBFF36F8FEBE701F064F96A
:100CB0000020EAE702A800F0FBFD012721E0002365
:100CC00084F8443029E0002384F845302BE02046A6
:100CD000FFF7A7FD00F06CFC09E02046FFF7A1FD3F
:100CE00000F066FC2046FFF742FD00283DD101F0F0
:100CF00021F9A56B002DBDD1019B002BD6D0002F73
:100D0000D8D001F039F900F0B9FB01F013F994F8EB
:100D100044305BB2B3F1FF3FD1D094F845305BB2C1
:100D2000B3F1FF3FCFD001F027F901A902A800F0ED
:100D3000CBFD0028D1D12046FFF719FD0028C6D0F1
:100D4000019904F1240000F039FD2046FFF769FD08
:100D500000F02EFC0028CAD1054B4FF080521A60DB
:100D6000BFF34F8FBFF36F8FC1E700208DE700BF48
:100D700004ED00E0002300E00133072B0BD8064A06
:100D800052F83320002AF7D1034A42F8331002EB1D
:100D9000C303586070477047C02B001070B50446FD
:100DA0000D46164601F0C6F894F844305BB2B3F134
:100DB000FF3F0DD094F845305BB2B3F1FF3F0BD04D
:100DC00001F0DAF8A36B5BB12046FFF72AFD70BD96
:100DD000002384F84430EDE7002384F84530EFE742
:100DE0003246294604F1240000F000FDECE700F152
:100DF000080343604FF0FF328260C3600361002349
:100E00000360704700230361704743684B609A6832
:100E10008A6051609960086103680133036070471C
:100E200030B40D68B5F1FF3F11D000F108031C4646
:100E30005B681A68AA42FAD963684B6099608C6053
:100E40006160086103680133036030BC7047046966
:100E5000F2E70369416882688A60416851605A68B4
:100E6000824206D0002202611A68013A1A601868AC
:100E7000704782685A60F5E7034B0360034B0B60D1
:100E800064231360704700BF8C280010BC20001042
:100E9000034B0360034B0B604FF4C8731360704740
:100EA000EC2800104C22001010B582B00C460190C6
:100EB0000023009301F03EF801992246044803F014
:100EC000ADF9009B002BFCD001F056F802B010BD2C
:100ED000CC4B001A08B5044803F028FA03492C202B
:100EE000FFF7E2FF08BD00BF0C4C001A304C001A9F
:100EF00008B5044803F092F903495020FFF7D4FFE6
:100F000008BD00BF504C001A304C001A084B1B683B
:100F10001B6823B9074B4FF0FF321A607047044B30
:100F20001B68DB68DB685A68024B1A60704700BFB9
:100F300050290010242A00102DE9F04780460D4664
:100F400017469946089EDDF824A00A9C9200A52128
:100F5000206B02F0ADFC236B07F18042013A03EBFA
:100F6000820727F00707676400220F2A07D8A95CC9
:100F7000A31883F83410AB5C0BB10132F5E7002302
:100F800084F84330062E00D90626E6622665002541
:100F90006565201DFFF736FF04F11800FFF732FFEB
:100FA0002461C6F10706A6616462A56584F85C50F9
:100FB0004A464146384600F08FFF2060BAF1000FE4
:100FC00001D0CAF80040BDE8F087FFFF38B5002423
:100FD00007E004EB840293000E481844FFF707FF74
:100FE0000134062CF5D90C4D2846FFF700FF0B4CB9
:100FF0002046FFF7FCFE0A48FFF7F9FE0948FFF715
:10100000F6FE0948FFF7F3FE084B1D60084B1C6015
:1010100038BD00BF58290010FC290010102A00100C
:101020002C2A0010582A0010442A001050290010C1
:101030005429001010B5044600F07CFF214A1368C3
:1010400001331360204B1B685BB1204B1B686BB9ED
:101050001D4B1B68DA6AE36A9A4207D81A4B1C6078
:1010600004E0194B1C601368012B27D0184A136841
:1010700001331360A364E06A01238340154A1168B9
:101080000B43136000EB8000211D134B03EB80002A
:10109000FFF7BBFE00F070FF0C4B1B686BB10A4BF7
:1010A0001B68DA6AE36A9A4207D20C4B4FF080520F
:1010B0001A60BFF34F8FBFF36F8F10BDFFF786FF2E
:1010C000D4E700BFE42900104C290010402A00108A
:1010D000F4290010F82900105829001004ED00E050
:1010E00010B5044690F85D3063B1012B11D0022B8E
:1010F0000ED04FF0A00383F31188BFF36F8FBFF3BF
:101100004F8FFEE7006BFFF7EBFA2046FFF7E8FA98
:1011100010BDFFF7E5FAFBE70F4B1B68D3B110B525
:1011200000F008FF0D4BDB68DC68201DFFF791FE27
:101130000B4A1368013B1360074A1368013B1360B5
:1011400000F01AFF2046FFF7CBFF034B1B68002B74
:10115000E6D110BD704700BFE8290010582A0010E2
:10116000E429001008B5FFF7D7FF064B1B68012BD9
:10117000F9D9054B4FF080521A60BFF34F8FBFF380
:101180006F8FF0E75829001004ED00E070B50446B9
:101190000D461D4B1E681D4B18680430FFF759FEA5
:1011A00050B91A4B1B68DA6A012303FA02F2184994
:1011B0000B6823EA02030B60B4F1FF3F0DD0344407
:1011C000124B1B685C60A64210D9124B18680F4B7B
:1011D00019680431FFF724FE70BD002DEFD00B4BD2
:1011E000196804310C48FFF710FEF5E70B4B18683F
:1011F000064B19680431FFF713FE094B1B68A34225
:10120000EAD9074B1C60E7E76C2A00104C29001054
:10121000F829001054290010442A00105029001009
:10122000242A001070B586B00B9D0C9C75B1B4B12A
:1012300060260496049E602E1AD04FF0A00383F31C
:101240001188BFF36F8FBFF34F8FFEE74FF0A003FE
:1012500083F31188BFF36F8FBFF34F8FFEE74FF01B
:10126000A00383F31188BFF36F8FBFF34F8FFEE7A7
:101270002563022584F85D5000250395029405AD91
:1012800001950A9D0095FFF757FE2046FFF7D2FE15
:10129000059806B070BD2DE9F04385B00746884635
:1012A00014461E469000FFF799F900B3814660206E
:1012B000FFF794F90546B0B1C0F83090E5B10023CE
:1012C00085F85D30039302950D9B01930C9B009371
:1012D0003346224641463846FFF72EFE2846FFF7A2
:1012E000A9FE012005E04846FFF7FAF9E6E74FF0CE
:1012F000FF3005B0BDE8F0834FF0FF30F9E7FFFFA6
:10130000F8B5062908D94FF0A00383F31188BFF37D
:101310006F8FBFF34F8FFEE704460D4600F00AFEC5
:1013200074B1236D9D422ED00DD92B4A1268A24272
:101330002CD0294A1268D26AAA4229D9002607E08D
:10134000254B1C68EDE7244A1268A24222D00026F1
:10135000E76ABB4220D02565A369002B02DBC5F1FB
:101360000705A561616907EB87021C4B03EB82034C
:10137000994213D03EB11A4B4FF080521A60BFF31E
:101380004F8FBFF36F8F00F0F7FDF8BD0026DFE74A
:101390000126DDE70126DBE7E562DCE7251D2846BF
:1013A000FFF757FD38B9012303FA07F70D4A136811
:1013B00023EA07031360E06A01238340094A1168A6
:1013C0000B43136000EB80002946044B03EB8000C5
:1013D000FFF71BFDCEE700BF4C2900105829001075
:1013E00004ED00E0F829001010B588B00024059441
:1013F000069407AA06A905A8FFF73EFD059B0293E0
:10140000069B019300942346079A17491748FFF754
:1014100009FF48B100F076FB0346012B06D0B3F17B
:10142000FF3F18D008B010BD0023F6E74FF0A0032F
:1014300083F31188BFF36F8FBFF34F8F0C4B4FF0C7
:10144000FF321A600B4B01221A600B4B00221A600C
:1014500000F012FEE6E74FF0A00383F31188BFF31C
:101460006F8FBFF34F8FFEE7804C001A6511001A93
:10147000242A0010402A00106C2A0010024A136827
:1014800001331360704700BFF0290010014B18684A
:10149000704700BF6C2A0010F8B53A4B1B68002B50
:1014A00064D1394B1D6801351D60C5B9374B1B68C8
:1014B0001B6843B14FF0A00383F31188BFF36F8F14
:1014C000BFF34F8FFEE7314A1168314B1868106047
:1014D0001960304A136801331360FFF717FD2E4B74
:1014E0001B68AB4238D900242C4B1B68DB6A03EB2A
:1014F00083039A002A4B9B58012B3CD901243AE0E4
:101500000124224B1B681B6843B3204B1B68DB681C
:10151000DE6873689D4226D3371D3846FFF799FC75
:10152000B36A1BB106F11800FFF793FCF36A0122BE
:101530009A401C49086802430A6003EB83039A003F
:10154000394617481044FFF760FCF26A134B1B68DA
:10155000DB6A9A42D4D2D4E70024D2E70E4B4FF094
:10156000FF321A60C0E70C4A1360BDE70E4A1368E9
:101570000133136000240D4B1B6803B10124204686
:10158000F8BD00BFF02900106C2A0010502900108F
:1015900054290010282A0010242A00104C29001079
:1015A00058290010F8290010EC290010702A0010AA
:1015B00038B5344B1B6843B94FF0A00383F311884F
:1015C000BFF36F8FBFF34F8FFEE700F0B3FC2D4BDF
:1015D0001A68013A1A601B68002B4DD12A4B1B6810
:1015E0000BB9002449E00024284B1B681BB3274B90
:1015F000DB68DC6804F11800FFF72BFC251D28468A
:10160000FFF727FCE06A01238340214A11680B435E
:10161000136000EB800029461E4B03EB8000FFF7B0
:10162000F4FBE26A1C4B1B68DB6A9A42DCD31B4B5F
:1016300001221A60D8E70CB1FFF768FC184B1C6850
:1016400074B9164B1C68C4B1164B4FF080521A6027
:10165000BFF34F8FBFF36F8F01240EE0013C07D023
:10166000FFF71AFF0028F9D00C4B01221A60F5E7AA
:101670000B4B00221A60E4E7002400F07DFC2046BA
:1016800038BD00BFF0290010E42900102C2A0010FA
:10169000F8290010582900104C290010702A001059
:1016A000EC29001004ED00E010B5A8B104460F4B82
:1016B0001B6843B14FF0A00383F31188BFF36F8F12
:1016C000BFF34F8FFEE7FFF7D9FE00212046FFF75B
:1016D0005DFDFFF76DFF38B9054B4FF080521A6082
:1016E000BFF34F8FBFF36F8F10BD00BFF029001005
:1016F00004ED00E02C4B1B681BB12C4B01221A603F
:10170000704710B5294B00221A60294B1B681B6BD0
:101710001A68B2F1A53F03D15A68B2F1A53F1BD0B8
:10172000234B186819683431FFF7E2FB214B1B6823
:10173000B3FA83F3DBB2C3F11F0303EB83018A0027
:101740001D498A588AB94FF0A00383F31188BFF36B
:101750006F8FBFF34F8FFEE79A68B2F1A53FDFD1DD
:10176000DB68B3F1A53FDBD1E0E7134903EB83006E
:1017700082000A4450684068506003EB8304A20072
:10178000144608321144884209D003EB83039A00BF
:10179000094B13445B68DA68054B1A6010BD40685A
:1017A000054A22445060F0E7F0290010702A00102A
:1017B0004C290010F82900105829001058B110B514
:1017C0000C46094B19681831FFF72AFB0121204606
:1017D000FFF7DCFC10BD4FF0A00383F31188BFF3CB
:1017E0006F8FBFF34F8FFEE74C29001038B570B1F3
:1017F0000C4615460A4B19681831FFF706FB0DB168
:101800004FF0FF3429462046FFF7C0FC38BD4FF0AB
:10181000A00383F31188BFF36F8FBFF34F8FFEE7F1
:101820004C29001038B5C368DC6824B304F11805EE
:101830002846FFF70EFB184B1B682BBB251D2846BF
:10184000FFF707FBE06A01238340144A11680B434A
:10185000136000EB80002946114B03EB8000FFF77B
:10186000D4FAE26A0F4B1B68DB6A9A4211D9012055
:101870000D4B18600EE04FF0A00383F31188BFF307
:101880006F8FBFF34F8FFEE729460848FFF7BDFA79
:10189000E7E7002038BD00BFF0290010F82900104C
:1018A000582900104C290010702A00102C2A001012
:1018B000034B1B680360034B1B684360704700BF0A
:1018C000282A00106C2A0010F8B5C8B10C4605464D
:1018D000F9B100F02FFB1B4B19686B68C81A22681E
:1018E000B2F1FF3F26D02F68174E3668B74201D0BD
:1018F0008B4224D9824215D80023236001241AE0A8
:101900004FF0A00383F31188BFF36F8FBFF34F8FA6
:10191000FEE74FF0A00383F31188BFF36F8FBFF38F
:101920004F8FFEE75B1A134423602846FFF7C0FF82
:10193000002400E0002400F01FFB2046F8BD012435
:10194000F9E700BF6C2A0010282A0010014B012281
:101950001A607047702A0010054B1B6833B1054BA5
:101960001B680BB1002070470220704701207047B0
:10197000402A0010F029001000284CD038B5044649
:10198000274B1B68834208D04FF0A00383F31188D4
:10199000BFF36F8FBFF34F8FFEE7436D43B94FF037
:1019A000A00383F31188BFF36F8FBFF34F8FFEE760
:1019B000013B4365C16A026D91422ED00BB10020FC
:1019C00038BD051D2846FFF744FA70B9E26A02EBFC
:1019D00082039B001349CB583BB9012303FA02F25F
:1019E00011490B6823EA02030B60206DE062C0F12D
:1019F0000703A361012404FA00F30B4A11680B43A7
:101A0000136000EB80002946064B03EB8000FFF7D4
:101A1000FCF92046D4E7002070470020D0E700BF43
:101A20004C29001058290010F8290010064B1A689C
:101A30001368B3FA83F35B09036013B9D3681868BA
:101A400070470020704700BF742A001008B541603D
:101A5000006191420CD8D21A83699A4201D30120C5
:101A600008BD011D094B1868FFF7DAF90020F7E7F8
:101A70009A4201D2994206D2011D054B1868FFF720
:101A8000CFF90020ECE70120EAE700BF782A001038
:101A9000742A001030B583B000F04CFA114B1B686B
:101AA0001BB100F069FA03B030BD0F4D2846FFF7B7
:101AB0009EF90E4C2046FFF79AF90D4B1D600D4B19
:101AC0001C60002300930C4B0C4A10210A20FEF7E7
:101AD00032FF044B18600028E3D00949FFF74AF9A8
:101AE000DFE700BF982B00101C2B0010302B0010DC
:101AF000742A0010782A0010482B00107C2A00104D
:101B0000884C001A10B588B0FFF7C4FF124B1B6851
:101B1000CBB100240594069407AA06A905A8FFF7EF
:101B2000B7F9059B0293069B019304230093234678
:101B3000079A0A490A48FFF775FB0A4A106010B174
:101B4000012008B010BD4FF0A00383F31188BFF34C
:101B50006F8FBFF34F8FFEE7982B0010904C001A49
:101B6000451E001A9C2B0010C0B110B584B014465D
:101B70001A4603461648006838B300910194029350
:101B800005291CDCFFF7E8FE022810D000231A46C6
:101B900069460F480068FEF717FF14E04FF0A003F6
:101BA00083F31188BFF36F8FBFF34F8FFEE70023DE
:101BB000069A694606480068FEF706FF03E0002320
:101BC0006946FEF7C1FF04B010BD0020FBE700BF6F
:101BD000982B001070B582B01A4B1B681A6852B36C
:101BE000DB681E68DC68251D2846FFF732F9636A4A
:101BF00020469847E369012BEED1A36933449E4206
:101C000007D26360246129460E4B1868FFF708F974
:101C1000E2E7002100910B4632462046FFF7A4FF81
:101C20000028D9D14FF0A00383F31188BFF36F8F41
:101C3000BFF34F8FFEE7044A106802490860136043
:101C400002B070BD742A0010782A001038B505461D
:101C5000FFF71CFC0446074B1B68834205D8002392
:101C60002B60044B1C60204638BDFFF7B3FF0123F7
:101C70002B60F6E7442B001070B582B005460E4687
:101C8000144B1B68DB68DC68201DFFF7E2F8E36992
:101C9000012B04D0636A2046984702B070BDA16949
:101CA0002B46324629442046FFF7D0FE0028F1D0CB
:101CB000002100910B462A462046FFF755FF0028D9
:101CC000E8D14FF0A00383F31188BFF36F8FBFF308
:101CD0004F8FFEE7742A001070B582B006460C469E
:101CE000FFF7CCFB01A8FFF7B1FF019B1BBB05462B
:101CF0000CB9B04218D22CB1114B1B681C68B4FA55
:101D000084F464092246711B0E4B1868FFF746F8ED
:101D1000FFF74EFC88B90C4B4FF080521A60BFF3AE
:101D20004F8FBFF36F8F08E0FFF742FC2946304624
:101D3000FFF7A2FF01E0FFF73BFC02B070BD00BF60
:101D4000782A0010982B001004ED00E010B588B040
:101D500006E007990698059B9847049B002B0BDA31
:101D6000002204A9364B1868FEF756FF002865D0FC
:101D7000049B002BF1DAECE7069C636913B1201D8C
:101D8000FFF767F803A8FFF761FF049B092BE7D86B
:101D900001A252F823F000BFC11D001AC11D001A94
:101DA000C11D001A611D001A071E001A2D1E001AFF
:101DB000C11D001AC11D001A611D001A071E001A5C
:101DC000059BA169024619442046FFF73FFE002803
:101DD000C6D0636A20469847E369012BC0D1A26947
:101DE000002100910B46059802442046FFF7BCFEF7
:101DF0000028B5D14FF0A00383F31188BFF36F8F94
:101E0000BFF34F8FFEE70599A16131B1034602464A
:101E100001442046FFF71AFEA2E74FF0A00383F328
:101E20001188BFF36F8FBFF34F8FFEE794F82C300C
:101E3000002B95D12046FEF753FC91E708B010BD6A
:101E4000982B001000B583B001A8FFF7EFFD0199B2
:101E5000FFF742FFFFF77AFFF6E7FFFF82B00023AC
:101E600001930D4B1B68B3F1FF3F08D04FF0A00367
:101E700083F31188BFF36F8FBFF34F8FFEE74FF0EF
:101E8000A00383F31188BFF36F8FBFF34F8F019BC4
:101E9000002BFCD002B0704700000010084800681A
:101EA000006880F308884FF0000080F3148862B661
:101EB00061B6BFF34F8FBFF36F8F00DF00BF00002D
:101EC00008ED00E0DFF80C00016841F470010160EA
:101ED0007047000088ED00E04FF0807340F8043C4C
:101EE00021F0010140F8081C054B40F80C3C40F87B
:101EF000202C6FF0020340F8243C4438704700BFA8
:101F00005D1E001AFFFFFFFFFFFFFFFFFFFFFFFF48
:101F1000074B19680868B0E8F04F80F30988BFF3F1
:101F20006F8F4FF0000080F311887047AFF300808F
:101F30004C2900104FF0A00383F31188BFF36F8F7B
:101F4000BFF34F8F0A4A136801331360012B00D08F
:101F50007047084B1B6813F0FF0FF9D04FF0A00338
:101F600083F31188BFF36F8FBFF34F8FFEE700BF7E
:101F70000000001004ED00E0094B1B6843B94FF06E
:101F8000A00383F31188BFF36F8FBFF34F8FFEE77A
:101F9000013B034A13600BB983F31188704700BFFC
:101FA00000000010FFFFFFFFFFFFFFFFFFFFFFFF2D
:101FB000EFF30980BFF36F8F154B1A681EF0100FF7
:101FC00008BF20ED108A20E9F04F10602DE90900CC
:101FD0004FF0A00080F31188BFF34F8FBFF36F8FD6
:101FE000FFF788FB4FF0000080F3118809BC1968E7
:101FF0000868B0E8F04F1EF0100F08BFB0EC108A70
:1020000080F30988BFF36F8F704700BFAFF3008084
:102010004C29001008B54FF0A00383F31188BFF3DB
:102020006F8FBFF34F8FFFF737FA18B1034B4FF0A5
:1020300080521A60002383F3118808BD04ED00E08C
:10204000084A0023136008490B60084B1B680849C5
:10205000A1FB03135B09013B06490B6007231360D7
:10206000704700BF10E000E018E000E0002C001016
:102070001F85EB5114E000E03A4B1A683A4B9A4244
:1020800029D0384B1A68394B9A422DD010B582B0FE
:10209000374B1A78D2B20192FF221A701B78DBB24A
:1020A0008DF803309DF8033003F0A003314A13701C
:1020B000314B07221A609DF8033013F0800F1CD0BB
:1020C0002D4A1368013B13609DF803305B00DBB2BF
:1020D0008DF80330EFE74FF0A00383F31188BFF3CF
:1020E0006F8FBFF34F8FFEE74FF0A00383F311888C
:1020F000BFF36F8FBFF34F8FFEE71F4B1B68042B9F
:1021000008D04FF0A00383F31188BFF36F8FBFF3A4
:102110004F8FFEE71B0203F4E063174A1360019B35
:10212000DBB2134A1370154B1A6842F460021A604E
:102130001A6842F060421A60FFF782FF0024104BD9
:102140001C60FFF7BFFE0F4A136843F04043136063
:10215000FFF7A4FEFFF7CEFAFFF780FE204602B09D
:1021600010BD00BF00ED00E071C20F4170C20F4111
:1021700000E400E0A02B0010A42B001020ED00E0F4
:102180000000001034EF00E0EFF305830F2B0FD9B0
:10219000104A9B5CDBB2104A12789A4208D94FF081
:1021A000A00383F31188BFF36F8FBFF34F8FFEE758
:1021B0000A4B1B6803F4E063094A1268934208D98A
:1021C0004FF0A00383F31188BFF36F8FBFF34F8FDE
:1021D000FEE77047F0E300E0A02B00100CED00E0FC
:1021E000A42B001008B5054B0122C3F88021044B35
:1021F0001B6813B1024B1B68984708BD00E100E063
:10220000A82B00100022052A19D870B40C4911F827
:10221000125001EB42014C780A4B05F5006653F869
:1022200026100120A040014343F8261003EB45137C
:10223000002119550132052AE8D970BC7047704752
:10224000A44C001A00400F400023032B16D830B4D2
:102250000B4911F8132001EB43014D78094C02F5AD
:10226000006254F822100120A84021EA000144F83D
:1022700022100133032BEBD930BC7047704700BFED
:102280009C4C001A00400F400023082B16D830B495
:102290000B4911F8132001EB43014D78094C02F56D
:1022A000006254F822100120A84021EA000144F8FD
:1022B00022100133082BEBD930BC7047704700BFA8
:1022C000B04C001A00400F4010B582B0084C69466F
:1022D000204600F045FA074A6946204600F060FAB9
:1022E00000226946204600F074FA02B010BD00BF1B
:1022F00000300E40801A060010B50B4C204600F04E
:1023000027FE636823F004036360236823F0FF0360
:1023100043F0070323600549204600F0FAFD636897
:1023200043F00203636010BD00500C40A086010022
:1023300008B5002000F010F9044B40F60802C3F87D
:10234000842C0349002000F01BF908BD0060084000
:1023500040420F0010B5074C204600F045F94FF4FD
:10236000E131204600F06AF90323E3600123E365CD
:1023700010BD00BF00100C40034B5B6913F0200F31
:10238000FAD0014B1860704700100C40054B5B6998
:1023900013F0010F03D0034B1868C0B270474FF021
:1023A000FF30704700100C4005280BD8064A12F881
:1023B000103002EB400042785B0103F1402303F54B
:1023C00070239954704700BFA44C001A05280FD8F9
:1023D000084A12F8103002EB400042785B0103F12A
:1023E000402303F57023985C003818BF0120704724
:1023F00000207047A44C001A10B50446FFF7E6FF12
:1024000080F00101C9B22046FFF7CEFF10BDFFFFEB
:1024100008B5FFF79FFF094800F05AFDFFF734FFAA
:10242000FFF752FFFFF768FFFFF782FFFFF7EAFEB3
:10243000FFF70AFF00F096FC08BD00BF00400F4008
:1024400008280FD8084A12F8103002EB40004278F2
:102450005B0103F1402303F57023985C003818BF3B
:102460000120704700207047B04C001A08B5C0B278
:10247000FFF782FF08BD08B5FFF788FF08BD08B564
:10248000FFF768FF08BDFFFF00231C2B12D810B414
:10249000094A02EB830112F823404A78488802EB8C
:1024A0004412064941F8220001331C2BF0D95DF893
:1024B000044B7047704700BFCC4C001A00600840C6
:1024C00010B5174AD2F8203123F4704343F4104377
:1024D000C2F82031D2F8243123F4704343F410437E
:1024E000C2F8243101220F49062000F045FC0024E7
:1024F0004CB10B4B5A6822F00C025A605A6842F0F9
:1025000003025A6010BD084800EB840101238A7859
:10251000497810F8240000F081FB0134E8E700BF9F
:102520000030044000CB280CC84C001A08B5FFF757
:10253000ABFFFFF7C5FF08BD012909D1C0EBC00003
:10254000044B03EB80000269137DDBB2042BFBD04C
:10255000704700BF0400001070B50446074EC50068
:10256000C0EBC00306EB8303988800F0BBFB2C1B79
:1025700056F824306C229A6170BD00BF0400001030
:102580002DE9F041044688460B4DC600C0EBC00360
:102590009F0005EB8303988800F0BEFBB0FBF8F1C9
:1025A000EB594A081A61341B55F824301869091A86
:1025B0005961BDE8F08100BF04000010094B98424A
:1025C0000BD003F58053984209D0A3F5802398429D
:1025D00001D000207047012070470220704703207F
:1025E000704700BF00100C4030B583B00446FFF7C1
:1025F000E5FF01231A4619460E4D35F8100000F08C
:1026000053FB0723A3600023E3656360E360236259
:10261000E36463652365084B9C4206D00323E360B3
:102620001023A362019B03B030BD00232361A36983
:102630000193F3E7484D001A002008402DE9F04FC0
:1026400083B001908846FFF7B9FF324B33F8100092
:1026500000F062FB06464FF0FF3701244FF0000BFD
:10266000A246D9462AE042424B1C17E00AB317465D
:10267000AB46A24699460135AC421ED93309300714
:10268000A4FB000104FB0311621908FB02F2002302
:1026900000F0A4FC02460B460028E4DB9742EAD394
:1026A000002BE8D0190CE6D1022BDFD8002DDDD0AD
:1026B000E1E71746AB46A246994601341FB10F2CFD
:1026C00001D80025D8E7B9F1000F1ED0019A1146B4
:1026D000D36843F08003D3605FFA89F31360C9F3D2
:1026E00007235360D36823F08003D3604FEA0A13B3
:1026F000DBB20BF00F0213438B6233090AFB03F3C7
:10270000DA4409FB0AF9B3FBF9F9484603B0BDE81E
:10271000F08F00BF404D001A034B984201D00320B8
:1027200070470420704700BF00400E4070B50D4652
:1027300014461E46FFF7F0FF00F0EEFA55B104FB19
:1027400006F404EB40006400B0FBF4F0C0B20138C2
:10275000C0B270BD04EB840304EB4304F1E7FFFF58
:1027600038B505460C46FFF7D7FF01231A46194630
:1027700000F09AFA0021E960084A22602171617133
:102780000B232846FFF7D2FF000240F40010237904
:102790005B0403F4602303432B6038BD801A0600FA
:1027A00070B505460E46046824F46F2424F4706462
:1027B0000A600B79C3F10B03DBB24979FFF7B6FF6F
:1027C00044EA002433795B0403F4602323432B6041
:1027D00070BD08B50A710A68FFF7E2FF08BDFFFF88
:1027E000F0B40B6813F0800F02D023F040030B60AD
:1027F000074601253AE04B6903FB02F3B3FBF5F30F
:102800001CE01C46B0EB040C27D4674506D98D604C
:10281000771CCF600A618C61CB6167460132B2F5EB
:10282000807F1DDC0C6814F0400FE4D0731C02FAAA
:1028300003FC4B6903FB0CF3B3FBF5F3DFF838C083
:102840006345EBD9DFF834C0634509D814F0800F35
:10285000D7D1741C23FA04F4D4E7CCF1000CD4E7EC
:102860000136032E01DC0122D9E70135042D01DCFC
:102870000026F6E7F0BC7047FF5E4C0900D012134B
:10288000F0B599B005460C465C22002101A801F084
:102890000FF8802300936369059323798DF8043042
:1028A00069462846FFF79CFF069BAB4227D0EB1AF0
:1028B0002ED41E46109B23F040031093636915939A
:1028C00023798DF8443010A92846FFF789FF169B1D
:1028D000AB421FD0EB1A25D41F462B4B9D4223D968
:1028E0000E982D1A33D4AE423BDCBE4231DC6D462D
:1028F0000FCD0FC495E80F0084E80F0006E06D4689
:102900000FCD0FC495E80F0084E80F0019B0F0BD9B
:102910005B42CEE710AD0FCD0FC495E80F0084E801
:102920000F00F3E75B42D7E74023089363690D93F9
:1029300008A92846FFF754FF0E9BAB42D0D108AD43
:102940000FCD0FC495E80F0084E80F00DEE76D425D
:10295000C9E710AD0FCD0FC495E80F0084E80F0054
:10296000D4E7AF4207DB08AD0FCD0FC495E80F00E9
:1029700084E80F00CAE710AD0FCD0FC495E80F0033
:1029800084E80F00C2E700BF80778E0630B40546AA
:1029900000231C2000E001331C2817D103EB430265
:1029A0000B4901EB4202117981420FD003EB430244
:1029B000074C34F81220AA42EDD803EB430204EB93
:1029C00042025288AA42E6D30846E5E730BC704787
:1029D000584D001A82B04FF47A7301930D4A9369EF
:1029E00023F0020192698A4201D00A4A916123F0E0
:1029F0000303094A1168094A914201D943F00403CB
:102A0000044A9361019B5A1E0192002BFAD102B035
:102A1000704700BF00000540C44C001AFF2C310174
:102A20001230054B53F8200010F0010F02D1C0F313
:102A300004607047112070470000054000F1120249
:102A4000034B53F82220034B185C00EA92007047B6
:102A500000000540504D001A08B510280AD8DFE8DC
:102A600000F0440B0D18210924272A2D09093034C0
:102A7000383C4000002008BD1E48FCE71E4BD3F840
:102A80002C3103F00703042B01D01C48F3E700208E
:102A9000F1E7194BD3F82C3103F00703042B27D0AF
:102AA0001648E8E7164B1868E5E7164B1868E2E7A2
:102AB000154B1868DFE7144B5868DCE700F068F83E
:102AC000D9E7002100F098F8D5E7012100F094F84B
:102AD000D1E7022100F090F8CDE7032100F08CF857
:102AE000C9E7042100F088F8C5E74FF40040C2E7C9
:102AF0000648C0E7001BB7000030044040787D0165
:102B0000984C001AC44C001AAC2B001080F0FA024A
:102B100038B505460C460879FFF79EFF6061194BF2
:102B20002B44194A934221D818B3802323600023F1
:102B3000A360E360B5FBF0F32361144A954203D927
:102B400003FB00F0A84207D021462846FFF798FE75
:102B5000A3688BB1013BA360236983B1E2680AB12A
:102B6000013AE260013B2361002038BD4FF0FF30A5
:102B7000FBE74FF0FF30F8E74FF0FF30F5E74FF09D
:102B8000FF30F2E7103A6BFF1005940BFF5E4C0923
:102B900070B582B0164D6C6CC4F30360FFF75CFF38
:102BA0000646144A0192286C10F001001DD0C4F3AF
:102BB0000742C4F30131C4F30125C4F3801001328C
:102BC000013102AB1D4415F8043C14F0800F08D10C
:102BD00038B95800B2FBF0F2B6FBF1F000FB02F09E
:102BE00003E0B6FBF1F002FB00F002B070BD00BFE5
:102BF000000005400102040838B50C460846FFF7FE
:102C00000FFF05462046FFF719FF04462846FFF749
:102C100023FF0134B0FBF4F038BDFFFF30B400F106
:102C20001604A40004F1804404F5A02464681B2861
:102C300013D811291AD00E4D25400AB145F400656C
:102C40000BB145F0010545EA01611630800000F145
:102C5000804000F5A020416008E044F001041630F7
:102C6000800000F1804000F5A020446030BC704737
:102C7000FEF7FFE01B280DD800F116039B0003F1BF
:102C8000804303F5A023586810F0010F04D1C0F36E
:102C900004607047112070471120704708B5FFF796
:102CA000E9FFFFF7D9FE08BD71B901210AB141F072
:102CB0000401022B0AD0B0F5A17F0AD3A0F59170D0
:102CC000064B43F8301070470321EFE741F0200135
:102CD000F1E72030024B43F83010704700200540E8
:102CE00000100540B0F5A17F09D3094AA0F5917005
:102CF00052F8303043F0010342F830307047054A53
:102D0000203052F8303043F0010342F83030704741
:102D1000002005400010054010B50346B0F5A17F26
:102D200008D3A0F591720D4951F8324014F001001A
:102D300006D110BD00F12002094951F83240F5E7F3
:102D40001846FFF723FEFFF7A9FF14F0E00F03D1A9
:102D50000123B0FBF3F0ECE70223FAE70020054083
:102D60000010054008B56920FFF7D6FF014B186039
:102D700008BD00BF002C001070B58AB005460E4695
:102D800014464CF250330993062818D00023012230
:102D900029460420FFF742FF4A4A536C43F00103DF
:102DA00053648DF8085001A93046FFF7B1FE464B39
:102DB0009E4216D9019B13F0400F03D0FEE7FFF7A8
:102DC00009FEE3E713F0800F05D023F080030193A1
:102DD0000025012607E0049B01330493012500260A
:102DE00001E000252E469DF80820019B43EA02637E
:102DF000059A43EA0243039A43EA0233049A43EAF8
:102E0000022343F400632F4A53642E4B1B6C13F0D0
:102E1000010FFAD00023012209210420FFF7FEFE52
:102E200006B34CF250330993099B5A1E0992002BAA
:102E3000FAD1019B43F0800301939DF8082043EAF7
:102E40000263059A43EA0243039A43EA0233049A6F
:102E500043EA022343F400631A4A5364002C2ED140
:102E60000AB070BD002DF9D04CF250330993099B84
:102E70005A1E0992002BFAD1049B5A1E04929DF807
:102E80000810019B43EA0163059943EA0143039952
:102E900043EA013343EA022343F40063094A5364DB
:102EA000DCE70A4800EB8401CB788A78497810F88F
:102EB0002400FFF7B3FE0134112CF2D9D0E700242F
:102EC000FAE700BF0000054080778E06C44D001A67
:102ED0007047FFFF034B984201D083207047A52025
:102EE000704700BF00500C40044B984202D040F2A3
:102EF000022070474FF4F170704700BF00500C4043
:102F0000036823F47F43090289B219430160026117
:102F1000704770B506460C46FFF7E6FFFFF7FCFE6C
:102F200002224FF0FF33002100E02946A3420BD9D3
:102F30004D1C01FB0223B0FBF3F39C42F6D2FF2DA4
:102F4000F3D902320021F1E73046FFF7D9FF70BD17
:102F500010B50446FFF7BEFFFFF7C4FE2046FFF79B
:102F6000C3FFFFF7BFFE636823F0040363602368B9
:102F700023F0FF0343F00703236002492046FFF7D5
:102F8000C8FF10BDA086010008B50B4A0B4B9A6024
:102F900003F50C731B6903F47F63202B04D0FFF748
:102FA000C5FAFFF735FA08BD044AD2F8883043F471
:102FB0007003C2F88830F2E70000001A00ED00E06C
:102FC00008B5044B1B681B68DB68034A1068984708
:102FD00008BD00BF042C0010B42B001053B94AB92F
:102FE000002908BF00281CBF4FF0FF314FF0FF3011
:102FF00000F06EB9ADF1080C6DE904CE00F006F8F2
:10300000DDF804E0DDE9022304B070472DE9F04764
:10301000089D04468C46002B40F083808A42174668
:1030200047D9B2FA82F242B1C2F1200024FA00F08C
:103030009140974040EA010C94404FEA1748230C16
:10304000BCFBF8F61FFA87FE08FB16C143EA0143F2
:1030500006FB0EF1994209D9FB1806F1FF3080F00A
:103060001981994240F21681023E3B445B1AA4B298
:10307000B3FBF8F008FB103344EA034400FB0EFEF8
:10308000A64509D93C1900F1FF3380F00581A6451A
:1030900040F2028102383C4440EA0640A4EB0E04B0
:1030A00000261DB1D4400023C5E900433146BDE8E8
:1030B000F08702B9FFDEB2FA82F2002A50D1CB1BB0
:1030C0004FEA174E1FFA87F80126B3FBFEFC210CCE
:1030D0000EFB1C3341EA034108FB0CF38B4207D97A
:1030E00079180CF1FF3002D28B4200F2E98084465D
:1030F000C91AA3B2B1FBFEF00EFB101143EA014462
:1031000008FB00F8A04507D93C1900F1FF3302D2B3
:10311000A04500F2D9801846A4EB080440EA0C4010
:10312000BFE78B4209D9002D00F0B1800026C5E928
:10313000000130463146BDE8F087B3FA83F6002E31
:103140004AD18B4202D3824200F2B880841A61EBEA
:10315000030101208C46002DA8D0C5E9004CA5E74D
:10316000C2F1200320FA03F6974001FA02F04FEA79
:10317000174ED9403043030CB1FBFEF61FFA87F817
:103180000EFB161143EA014306FB08F1994204FACB
:1031900002F409D9FB1806F1FF3C80F08D809942BA
:1031A00040F28A80023E3B445B1A81B2B3FBFEF0E0
:1031B0000EFB103341EA034100FB08F38B4207D9B1
:1031C000791800F1FF3C73D28B4271D9023839442F
:1031D000CB1A40EA064678E7C6F1200C03FA06F45B
:1031E00022FA0CF31C4320FA0CF701FA06F34FEA1B
:1031F000144E21FA0CF11F433B0CB1FBFEF91FFAF0
:1032000084F80EFB191143EA014109FB08FA8A45CB
:1032100002FA06F200FA06F308D9611809F1FF3044
:1032200048D28A4546D9A9F102092144A1EB0A01F5
:10323000BFB2B1FBFEF00EFB101147EA014700FBE5
:1032400008F8B84507D9E71900F1FF312ED2B84583
:103250002CD90238274440EA0940A7EB0807A0FB15
:1032600002894F45C64649461AD317D05DB1B3EB24
:103270000E0267EB010707FA0CFCF2404CEA02026F
:10328000F740C5E9002700263146BDE8F0872E4605
:1032900028460BE70646E9E61846FDE64345E5D233
:1032A000B8EB020E69EB04010138DFE70846D2E70C
:1032B00060468DE78146B9E7664675E730464AE7DE
:1032C000ACF1020C394413E702383C4424E700BF58
:1032D000704700BF8B891A072DE9F0410C468046E4
:1032E00041D44A68002A59DDE66A002E53D00022F4
:1032F000D8F80050216AC8F8002013F4805251D148
:1033000001234046B047431C5FD0A389E66A216A87
:103310005F0705D56268636B801A0BB1236CC01A16
:10332000024600234046B047461C45D1D8F800303D
:10333000B4F90C20002B55D01D2B01D0162B5AD1DF
:1033400023690022C4E90032616BC8F8005011B350
:1033500004F14403994202D0404600F0F9FA0020FB
:103360006063BDE8F0810E69AEB10D680E6099072B
:103370000CBF63690023AD1BA3600AE02B463246F5
:10338000A76A216A4046B8470028A5EB0005064415
:103390000ADD002DF2DC0020BDE8F0810A6C002A75
:1033A000A2DCF8E7606DB3E7A38943F04003A38193
:1033B0004FF0FF30BDE8F0812269A389226000222E
:1033C0006260DA04C0D56065BEE7D8F80030002B33
:1033D0009BD01D2B0CD0162B0AD0A38943F04003A1
:1033E000A381D9E72169C4E90013D304ACD5EAE786
:1033F000C8F80050CFE742F04002A281CCE700BFFE
:103400000B6923B310B5044682B008B18369BBB120
:10341000104B994212D0104B994216D00F4B994243
:1034200008BFE168B1F90C302BB1204602B0BDE80D
:103430001040FFF74FBF002002B010BD6168F1E7F8
:10344000019100F007F90199E2E7A168EAE700209D
:10345000704700BF4C4E001A2C4E001A0C4E001A3A
:1034600020B1054B01461868FFF7CABF034B04495A
:10347000186800F035B900BF3C0000106C4E001A0F
:103480000134001A00207047014900F029B900BF3B
:103490000134001A0020704770B54A1E682505FBEC
:1034A00002F50E4605F1740100F0A8FA044640B199
:1034B00000210C30666005F168022160A06000F018
:1034C000F7F9204670BD00BF1E4B70B51D68AB6993
:1034D000064643B34835D5E90134013B05D51EE026
:1034E000013B5A1C04F1680419D0B4F90C20002ADD
:1034F000F6D10025144B6566C4E90055A560C4E902
:103500000455A5612946E360082204F15C0000F03F
:10351000CFF9C4E90D55C4E91255204670BD2C6899
:103520002CB12546D7E7284600F010F8D2E7042151
:103530003046FFF7B1FF044628600028F1D10C2384
:103540003360EAE76C4E001A0100FFFF2DE9F84FE7
:10355000334B34491A68816290424FF00003C0E94E
:103560001233036504BF012383610546FFF7ACFFF7
:1035700068602846FFF7A8FFA8602846FFF7A4FF69
:103580006E68E86000240423F3607466C6E90044B2
:10359000B460C6E90444B461214606F15C00082227
:1035A00000F086F9DFF888B0AF68DFF888A0DFF8B0
:1035B0008890DFF888801C4BC6F83080C6E9086B1D
:1035C000C6E90AA92146FB6008227C66C7E90044D7
:1035D000BC60C7E90444BC6107F15C0000F068F915
:1035E000EE68124BC7F83080C7E9087BC7E90AA923
:1035F0002146F3607466C6E90044B460C6E9044439
:10360000B46106F15C00082200F052F90123C6E91A
:10361000086BC6E90AA9C6F83080AB61BDE8F88F2F
:103620006C4E001A8934001A0900010012000200D1
:103630003D43001A6543001AA543001AC543001A0A
:10364000024B0349186800F04BB800BF6C4E001ADB
:103650000134001A836903B978E77047704700BFE7
:10366000704700BF704700BF704700BF024B03495F
:10367000186800F00FB800BF3C0000108534001A35
:10368000024B0349186800F005B800BF3C00001069
:103690009534001A2DE9F04110F148071BD08846F7
:1036A0000026D7E90154013D0FD4A389012B05F170
:1036B000FF3506D9B4F90E300133204601D0C0479A
:1036C00006436B1C04F16804EFD13F68002FE8D17A
:1036D0003046BDE8F0813E463046BDE8F08100BF8F
:1036E0002DE9F84310F148071FD0884606464FF0F1
:1036F0000009D7E90154013D11D4A389012B05F13B
:10370000FF3508D9B4F90E3001332146304602D0D6
:10371000C04749EA00096B1C04F16804EDD13F6819
:10372000002FE6D14846BDE8F883B9464846BDE8D3
:10373000F88300BF70B50D4E0D4D761BB61006D048
:103740000024013455F8043B9847A642F9D1094EAC
:10375000094D761BFCF77FFEB61006D0002401341D
:1037600055F8043B9847A642F9D170BDAC4E001AFB
:10377000AC4E001AB04E001AAC4E001A844641EA14
:10378000000313F003036DD1403A41D351F8043BD9
:1037900040F8043B51F8043B40F8043B51F8043B2B
:1037A00040F8043B51F8043B40F8043B51F8043B1B
:1037B00040F8043B51F8043B40F8043B51F8043B0B
:1037C00040F8043B51F8043B40F8043B51F8043BFB
:1037D00040F8043B51F8043B40F8043B51F8043BEB
:1037E00040F8043B51F8043B40F8043B51F8043BDB
:1037F00040F8043B51F8043B40F8043B51F8043BCB
:1038000040F8043B51F8043B40F8043B403ABDD239
:10381000303211D351F8043B40F8043B51F8043BDB
:1038200040F8043B51F8043B40F8043B51F8043B9A
:1038300040F8043B103AEDD20C3205D351F8043B6A
:1038400040F8043B043AF9D2043208D0D2071CBF36
:1038500011F8013B00F8013B01D30B88038060465F
:10386000704700BF082A13D38B078DD010F00303D5
:103870008AD0C3F10403D21ADB071CBF11F8013B45
:1038800000F8013B80D331F8023B20F8023B7BE794
:10389000043AD9D3013A11F8013B00F8013BF9D2BF
:1038A0000B7803704B7843708B7883706046704759
:1038B000F0B4860746D0541E002A3CD0CAB2034654
:1038C00002E014F1FF3436D303F8012B9D07F8D141
:1038D000032C29D9CDB245EA05250F2C45EA05452B
:1038E00033D9A4F11006360903F1200707EB0617B8
:1038F00003F1100242E9045542E902551032BA427E
:10390000F8D1721C14F00C0F03EB021204F00F0636
:1039100013D0331F23F003030433134442F8045B32
:103920009342FBD106F003042CB1C9B21C4403F846
:10393000011B9C42FBD1F0BC704734461346002C5F
:10394000F3D1F8E714460346C2E71A462646E0E7F5
:1039500000293CD038B551F8043C0C1F002BB8BFEF
:10396000E418054601F0CCF8234B1A682AB1A242AC
:103970000DD921686018824223D0626028461C60FD
:10398000BDE8384001F0BEB8A34203D81A465368D8
:10399000002BF9D111685018A04219D024D8216801
:1039A0006018834206D0636054602846BDE8384002
:1039B00001F0A8B8D3E900030144636021605460BA
:1039C000F3E7D2E90002014462602160D6E7704764
:1039D00020680144501883421160E6D1D3E9000306
:1039E000014453601160E0E70C232B602846BDE8DA
:1039F000384001F087B800BFB82B0010F8B5CD1CD7
:103A000025F0030508350C2D38BF0C25002D064682
:103A100033DBA94231D82A4F01F072F83A6852B12B
:103A200013685B1B04D43FE023685B1B29D5224647
:103A30005468002CF8D1796800293BD029463046DB
:103A4000FCF75EFD431C28D0C41C24F00304A042F4
:103A500005D0211A3046FCF753FD01301DD02560FA
:103A6000304601F04FF804F10B0020F00700231D51
:103A7000C21A01D01B1AA350F8BD0C2232600020DC
:103A8000F8BD0B2B05D8A242636811D05360E7E75D
:103A9000144623601C442560E2E70C233046336063
:103AA00001F030F80020F8BD0B2BF1D85368144614
:103AB0003B60D5E73046FCF723FD7860BEE700BFEA
:103AC000B82B00109368013B002B936011DA10B4FF
:103AD0009469A34209DB0A2907D01368581C1060B7
:103AE000197008465DF8044B70475DF8044B00F010
:103AF0006DBC1368581C106019700846704700BFF1
:103B00009BB1F8B513440F4606465D1E541E01E0F6
:103B1000AC4208D03A4614F8011F3046FFF7D2FFF6
:103B2000431CF5D1F8BD0020F8BD0020704700BF50
:103B3000936810B5144613B95360184610BD00F0D1
:103B400025FD0023C4E9013310BD00BF2DE9F04F6E
:103B50009FB08B4690461C46039018B18369002B9A
:103B600000F0B780A24B9B4500F0B980A14B9B456C
:103B700000F0C780A04B9B4504BF039BD3F80CB05B
:103B8000BBF80C30180740F1B280DBF81030002B86
:103B900000F0AD8030238DF8323098F80030059475
:103BA000002120220B918DF83120944E0127002B0B
:103BB00000F08780252B00F01581454603E0252B7A
:103BC00000F0A38025466B786C1C002BF7D1B4EB7A
:103BD000080A76D04246534659460398FFF790FFAD
:103BE00001306ED00B9B6A7853440B93002A68D047
:103BF00000234FF0FF3201340693CDE908338DF8EE
:103C00005B301C93079205E0069A07FA03F313430F
:103C10002C4606932546052215F8011B304600F078
:103C2000B7FEAA46831B0028EED1069BD90644BFE7
:103C300020228DF85B2021781A0744BF2B228DF8B3
:103C40005B202A2966D1059A116804320029059261
:103C5000C0F29D8009916178A51C2E2973D0684C13
:103C60000322204600F094FE002800F08680001B0E
:103C7000069B402404FA00F00343069305F1010873
:103C8000297860488DF83010062200F081FE002867
:103C900000F083805C4B002B72D005AB00935A463A
:103CA0005A4B039806A9AFF300808146B9F1FF3F54
:103CB00007D00B9B4B440B9398F80030002B7FF4FC
:103CC00079AFBBF80C305B0618D40B981FB0BDE879
:103CD000F08FFFF7BFFC464B9B457FF447AF039B3C
:103CE000D3F804B0BBF80C3018073FF54EAF594677
:103CF000039800F0CBFB00283FF44CAF4FF0FF30AF
:103D0000E4E7039BD3F808B03AE7B4EB080A3FF4C2
:103D10006FAF5FE7A1F13002092A88BFA2469CD8A5
:103D2000099B01E02C460135297803EB830302EB64
:103D30004303A1F13002092AAA46F3D92E2904F13E
:103D4000020509938BD19AF801102A292FD1059BDE
:103D50009AF802101A6807920433002A05930AF1B0
:103D600003050AF1020338DB254C032220469A465C
:103D700000F00EFE00287FF47AAFA84655467FE794
:103D8000059B073323F007030833059391E7494266
:103D900043F00203099106935DE705AB00935A4691
:103DA0001A4B039806A900F0D5F881467EE7A1F1E9
:103DB00030020023092A079301D915E05546697896
:103DC00003EB830302EB4303A1F13002092A05F15F
:103DD000010AF3D90235079341E74FF0FF329A46C3
:103DE00007923CE7444603E7AA46013537E700BFA0
:103DF0004C4E001A2C4E001A0C4E001A704E001A2F
:103E0000784E001A7C4E001A00000000013B001A98
:103E100010B4044C13460A46014620685DF8044B72
:103E2000FFF794BE3C0000102DE9F0470C46914688
:103E30000A698968DDF820808A42B8BF0A46C9F855
:103E4000002094F8431006461F4611B10132C9F80C
:103E50000020236899065CD5D9F800200232C9F801
:103E60000020236813F0060F19461DD1E1688A1A55
:103E7000002AD8BF194617DD04F1190A002505E00C
:103E8000E368D9F800209B1AAB420CDD01235246AF
:103E900039463046C047013005F10105F0D14FF0F9
:103EA000FF30BDE8F087216894F84330003318BF35
:103EB00001238A060AD5E1185A1C302081F84300F4
:103EC000224494F8451082F84310023304F143026F
:103ED00039463046C0470130E1D02368A2682169E5
:103EE00003F00603042B1DD08A4226DD4FF00009A3
:103EF000521A91441A34002501E04D451DDA012380
:103F0000224639463046C047013005F10105F4D15B
:103F1000C5E713F0060F13D094F84330003318BFF1
:103F20000123D3E7D9F80000E3688A42A3EB00033A
:103F300023EAE379DCDC002BDCDC0020BDE8F08741
:103F4000E168D9F800208A1A002AD8BF194693DC04
:103F5000AAE700BF2DE9F0430C46097E85B06E2923
:103F6000064617460C98984604F1430E6DD039D991
:103F7000732900F0F68044D9752900F0048178296E
:103F800040F0118178232268DFF858C284F8453068
:103F90000168150651F8043B016040F1A180D1078A
:103FA00044BF42F020022260002B00F093801022D8
:103FB000002184F843106068A0600028C0F2C88027
:103FC000216821F004012160002B40F0A38000282B
:103FD00040F0C0807546082A00F0AC80AEEB0503C7
:103FE000236141E0632900F0E5801AD8002938D028
:103FF000582940F0D88084F845102268DFF8E8C1DD
:10400000C6E76F2900F0BF80702940F0CC8022689D
:10401000DFF8D0C142F020027823226084F84530D6
:10402000B6E7642902D0692940F0BD8022680368A0
:10403000110603F1040557D5196805600B460029E0
:1040400059DBDFF8A4C10A22B5E703682268616979
:104050001D1D056015061B6802D4500600F1BD80C9
:104060001960002375462361CDF800803B4603AA02
:1040700021463046FFF7D8FE013020D02A4623697A
:1040800039463046C047013019D022680398E368AA
:10409000920719D51A1A002A16DD04F1190900250C
:1040A00004E0E36803981A1AAA420DDD01234A4688
:1040B00039463046C047013005F10105F1D14FF0D6
:1040C000FF3005B0BDE8F0839842B8BF184605B090
:1040D000BDE8F083226822F020022260102267E708
:1040E000500648BF9BB25AE75106A5D5B3F9003038
:1040F00005601946A3E76168A1602D200029C3F17E
:10410000000384F8430002DB22F004022260DFF89F
:10411000D8C00A22754600E00B46B3FBF2F102FB61
:10412000113093421CF8000005F8010DF4D2082A62
:104130007FF454AF2368DB077FF550AF62682369D3
:104140009A423FF74BAF302305F8013C013D45E76C
:10415000002BDFD19CF8003084F8423004F1420596
:1041600039E703686268191D01601D68002128464F
:1041700000F00EFC002832D0401B6060206100235C
:1041800084F8433070E72268036812F0800F03F16F
:1041900004051AD01B6805606F290CBF08220A228B
:1041A000DFF844C004E7012384F84210236104F1DE
:1041B0004205E4E703681A68191D0123016004F150
:1041C000420584F842202361D9E712F0400F0DBF69
:1041D0001B6805601B880560DEE7198041E76068A1
:1041E000CCE700BF984E001A844E001A0EB410B5EA
:1041F000044683B008B1836963B106A80346019001
:10420000059AA1682046FFF7A1FC03B0BDE8104065
:1042100003B07047FFF71EFAEFE700BF0FB410B509
:104220000B4B1C6882B00CB1A36963B105A80346AF
:104230000190049AA1682046FFF788FC02B0BDE80F
:10424000104004B070472046FFF704FAEEE700BFC5
:104250003C00001083692DE9F04180460E4633B3DF
:1042600084682F4B9C4230D02E4B9C4239D02E4B31
:104270009C4208BFD8F80C40A3891B072AD52369A4
:1042800043B3013EA36816F8015F013BA3609DB3F1
:10429000002B07DAA7699F4222462946404623DCC5
:1042A0000A2D21D023685A1C22601D70EAE7FFF70F
:1042B000D1F9D8F81830D8F80840002BD1D14046B1
:1042C000FFF7C8F9164B9C42CED1D8F80440A38919
:1042D0001B07D4D42146404600F0D8F80028D0D09F
:1042E00006E0D8F80840C7E700F070F80130C9D1FF
:1042F0004FF0FF30BDE8F081002B09DA224640463E
:104300000A2100F063F80130F2D00A20BDE8F08104
:1043100023680A22591C21601A701046BDE8F081FA
:104320004C4E001A2C4E001A0C4E001A024B01463D
:104330001868FFF78FBF00BF3C00001010B50C4697
:10434000B1F90E10FCF7A0F8002803DB636D0344FD
:10435000636510BDA38923F48053A38110BD00BF02
:10436000002070472DE9F0411646B1F90C201F4698
:10437000D3050C460546B1F90E1009D422F480523B
:10438000A2813B4632462846BDE8F041FCF7A3B87F
:1043900000220223FCF773F8B4F90C20B4F90E10D4
:1043A000ECE700BF10B50C46B1F90E10FCF767F84A
:1043B000A389421C0EBF23F4805343F480536065ED
:1043C000A38110BDB1F90E10FCF746B8F8B50D4643
:1043D0001446064608B1836943B3254B9C422AD054
:1043E000244B9C4229D0244B9C4208BFF468A389EB
:1043F000A269A2601A0722D5236903B32268616902
:10440000D31AEDB299422F4629DD0133A168501C21
:104410000139A1602060157062699A4216D0A389A3
:10442000DB0701D50A2D11D03846F8BDFFF712F988
:104430000F4B9C42D4D17468D9E7B468D7E72146C2
:10444000304600F023F838B92369D7E721463046D3
:10445000FEF7D6FF0028E7D04FF0FF37E4E721460C
:104460003046FEF7CDFF0028F6D122680123CDE7C4
:104470004C4E001A2C4E001A0C4E001A024B0A46E3
:1044800001461868FFF7A2BF3C0000103B4B70B517
:104490001D6806460C460DB1AB69DBB1384B9C423A
:1044A0001ED0384B9C424AD0374B9C4208BFEC6828
:1044B000B4F90C2093B2190718D5206908B313F08A
:1044C00001022CD0636900225B42A361A26060B349
:1044D000002070BD2846FFF7BDF8294B9C42E0D173
:1044E0006C68B4F90C2093B21907E6D4DD063CD50C
:1044F000580726D4206942F00803A3819BB2002804
:10450000DDD103F42072B2F5007FD8D030462146C9
:1045100000F0EEF9A389206913F00102D2D19907C6
:1045200058BF6269A2600028D2D1B4F90C301A06D3
:10453000CFD543F04003A3814FF0FF3070BDAC688E
:10454000B6E7616B51B104F14403994204D030469F
:10455000FFF7FEF9B4F90C20002363630023206900
:10456000636022F024022060C5E742F04002092384
:1045700033604FF0FF30A28170BD00BF3C000010DF
:104580004C4E001A2C4E001A0C4E001A9368002B49
:1045900000F002812DE9F04FB1F90C309BB20C46CE
:1045A000190783B08246904635D522699AB313F035
:1045B0000202D8F800603DD00027D4F828B0D4F823
:1045C00020C0DFF8CC923D464D452B463A4628BFE9
:1045D0004B4661465046D5B1D847002840F3D280BB
:1045E000D8F808301B1A07442D1AC8F80830002BD9
:1045F00000F0B780D4F820C0D4F828B04D452B4641
:104600003A4628BF4B4661465046002DE4D1D6E9D4
:1046100000750836D8E721465046FFF737FF0028D7
:1046200040F03081B4F90C30D8F800609BB213F040
:104630000202C1D113F0010940F0B080A7682068E0
:104640004D46002D54D09A0540F1BC80AF42BB4688
:1046500000F2E78013F4906F2FD0D4E9041707EB32
:104660004707A0EB010B07EBD777681C7F10584476
:10467000B8423A4684BF07463A465B0540F1E980B6
:1046800011465046FFF7BAF9002800F0F5805A4667
:1046900021690190FFF772F8A289019B22F49062D0
:1046A00042F08002A281A7EB0B0203EB0B006761D3
:1046B00023612060A2602F46AB465A46494600F06F
:1046C000B7F9A2682368D21B5B442F46A26023601F
:1046D0000025D8F80830DB1BB944C8F80830002B97
:1046E0003FD0B4F90C30A76820689BB2002DAAD146
:1046F000D6E900950836A4E70BF1080353E90267F1
:104700009B460833002FF9D03A460A21304600F084
:104710003FF9002853D00130A0EB06094B46D4E9FD
:1047200004122068BB4228BF3B46884203D9A568D3
:104730001544AB4219DC9A427DDC1346A56A216A16
:1047400032465046A847051E1CDDB9EB05096BD063
:104750000120D8F808305B1B2E447F1BC8F80830B6
:1047600013BB002003B0BDE8F08F31462A4600F0AD
:104770005FF923682B44236021465046FEF740FE34
:104780000028E2D0B4F90C3043F040034FF0FF3082
:10479000A38103B0BDE8F08F0020704733469146F7
:1047A000104617464E469B46002FA5D00028B5D18F
:1047B0003A460A21304600F0EBF80028ABD17B1CCA
:1047C0009946ACE72369834215D36169A94212D89F
:1047D0002E4BA76A9D4294BF2B466FF000434A467A
:1047E00093FBF1F3504601FB03F3216AB847071E20
:1047F000C8DDED1B6DE7AF4228BF2F463A4649465C
:1048000000F016F9A3682268DB1B3A44A36022601B
:10481000002BEED121465046FEF7F2FD0028E8D0ED
:10482000B0E72F46AB4648E721465046FEF7E8FD85
:1048300000288ED0A6E71A463146019300F0F8F81A
:10484000019BA1682268C91A1A44A16022601D4612
:104850007BE7504600F058F9034600287FF423AF69
:1048600021695046FFF774F8B4F90C300C2223F09C
:104870008003CAF8002087E70C23CAF80030B4F997
:104880000C3081E74FF0FF306CE700BFFEFFFF7F89
:1048900000FCFF7F70B50C46B1F90E10002996B0F0
:1048A00016461D4613DB6A46FBF7DBFD00280EDBD0
:1048B000019A02F47042A2F50052B2FA82F2520951
:1048C0004FF4806300202A60336016B070BDA38966
:1048D00000221B062A6004D540230020336016B056
:1048E00070BD4FF480630020336016B070BD00BF10
:1048F0008A8992070B4606D501F1470201211A6009
:10490000C3E90421704770B582B001AB6A460C461A
:104910000646FFF7BFFF009905463046FFF76EF8E1
:10492000B4F90C3070B11649B162019A0099206057
:1049300043F08003A381C4E904018AB92B43A38116
:1049400002B070BD9A05FBD423F0030304F14702C3
:1049500043F002030121A3812260C4E90421EFE7AF
:104960003046B4F90E10FBF781FD10B9B4F90C30E4
:10497000E4E7A38923F0030343F001031BB2DDE75F
:104980008934001AFFFFFFFFFFFFFFFFFFFFFFFF5C
:1049900001F0FF01102A2BDB10F0070F08D010F8F0
:1049A000013B013A8B422DD010F0070F42B3F6D1F4
:1049B000F0B441EA012141EA014122F007047FF00D
:1049C00000070023F0E80256083C85EA010586EA64
:1049D000010685FA47F5A3FA87F586FA47F6A5FAA0
:1049E00087F68EB9EED1F0BC01F0FF0102F00702AC
:1049F00032B110F8013B013A83EA010313B1F8D157
:104A00000020704701387047002D06BF3546033837
:104A1000073815F0010F07D1013015F4807F02BF70
:104A2000013015F4C03F0130F0BC0138704700BFC1
:104A30008842F0B40DD98B1883420AD9841832B158
:104A4000224613F8014D02F8014D9942F9D1F0BC0C
:104A500070470F2A0ED80346541E002AF7D001349F
:104A60000C44013B11F8012B03F8012FA142F9D1AD
:104A7000F0BC704740EA01039B073BD1A2F110074D
:104A80003F0901F1200606EB071601F1100300F1C2
:104A9000100453F8105C44F8105C53F80C5C44F8B4
:104AA0000C5C53F8085C44F8085C53F8045C44F868
:104AB000045C1033B34204F11004EAD17B1C1B01E7
:104AC00012F00C0F194402F00F05034415D0043DF9
:104AD000AD0803EB850C1C1F0E4656F8047B44F80A
:104AE000047F6445F9D10135AD002B44294402F01F
:104AF0000302B1E7541E0346B1E72A46ACE700BF04
:104B0000704700BF704700BF09B3F8B51446CAB17B
:104B100006460D4600F01EF8A04202D32F46384646
:104B2000F8BD21463046FEF769FF07460028F6D05B
:104B300022462946FEF722FE30462946FEF708FFA8
:104B40003846F8BD2746FEF703FF3846F8BD114644
:104B5000FEF754BF51F8043C181F002BBCBF0B5884
:104B6000C01870474750494F5F3020612047504977
:104B70004F5F3320656E2062696E6172696F3A2003
:104B800025642564256425640D0A00FF457374615E
:104B9000646F204C45442056455244453A202564D4
:104BA0000D0A00FF456A6572636963696F203320EF
:104BB0002D2052544F5320310D0000007461726556
:104BC0006131000074617265613200FF0D0A764147
:104BD000737365727443616C6C656428290D0A20D7
:104BE00020204C4C696E65204E756D626572203DCB
:104BF0002025640D0A20202046696C65204E616DD9
:104C000065203D2025730D0A0D0A00FF4170706C70
:104C100069636174696F6E204D616C6C6F632046CF
:104C200061696C656420486F6F6B210D00000000A6
:104C30006C6962732F6672656572746F732F736F20
:104C4000757263652F686F6F6B732E6300FFFFFFD4
:104C50000D0A4170706C69636174696F6E205374E2
:104C600061636B204F766572666C6F772121206FD0
:104C70006E205461736B3A2025730D0A00FFFFFF0D
:104C800049444C4500FFFFFF546D725100FFFFFF88
:104C9000546D722053766300000000000004000889
:104CA00000090109050005010502000E010B010CB8
:104CB000030003030304050F0510030503060307A0
:104CC0000208FFFF001BB700010F010102004400B2
:104CD0000201440002024400020A4000020B4000AC
:104CE000020C400001005000010150000102500080
:104CF0000106500006015000060450000605500051
:104D0000060754000608540006095000060A500021
:104D1000060B5000060C50000F04F0000103D500F4
:104D20000104D500070116000702560002035200D5
:104D300002045200090552000906570006025700F6
:104D4000C201A2018201620181008200A100A200D1
:104D5000030F0F0FFF00FFFF000005000A002000F7
:104D6000240009004000400005006000A600040087
:104D7000C000C3000200E000E000010000010001EB
:104D80000300200120010600400140010C00420107
:104D900042011900620162011300820182011200C6
:104DA000A201A2011100C201C2011000E201E20150
:104DB0000F00020202020E00220222020D00230254
:104DC00023021C0000010100090901000A09010079
:104DD0000107010102090100060901000C09010196
:104DE0000D0901000E0901000F0901001009010061
:104DF0001109010012090100130901001411010039
:104E0000191101001A1101001B110100000000001E
:104E10000000000000000000000000000000000092
:104E20000000000000000000000000000000000082
:104E30000000000000000000000000000000000072
:104E40000000000000000000000000000000000062
:104E50000000000000000000000000000000000052
:104E600000000000000000000000000040000010F2
:104E7000232D302B20000000686C4C0065666745D0
:104E8000464700FF30313233343536373839414206
:104E90004344454600000000303132333435363764
:0C4EA000383961626364656600FFFFFF43
:044EAC007F24001A45
:084EB0005CE1FF7F010000003E
:104EB800AAAAAAAA00100A40220000003925001A4E
:104EC80000000000000000000000000000000000DA
:104ED80000000E40010000003925001A0000000003
:104EE800000000000000000000000000400000106A
:104EF800000000004C4E001A2C4E001A0C4E001AEE
:104F08000000000000000000000000000000000099
:104F18000000000000000000000000000000000089
:104F28000000000000000000000000000000000079
:104F38000000000000000000000000000000000069
:104F48000000000000000000000000000000000059
:040000051A0003CD0D
:00000001FF
